:100000000C94FE000C949E010C949E010C949E0195
:100010000C949E010C949E010C949E010C949E01E4
:100020000C949E010C949E010C949E010C949E01D4
:100030000C949E010C949E010C949E010C949E01C4
:100040000C949E010C949E010C949E010C949E01B4
:100050000C949E010C949E010C949E010C949E01A4
:100060000C949E010C949E010C949E010C949E0194
:100070000C949E010C949E010C949E010C949E0184
:100080000C949E010C949E010C949E010C949E0174
:100090000C949E010C949E010C949E010C949E0164
:1000A0000C949E010C949E010C949E010C949E0154
:1000B0000C949E010C949E010C949E010C949E0144
:1000C0000C949E010C949E010C949E010C949E0134
:1000D0000C949E010C949E010C949E010C949E0124
:1000E0000C949E010C949E010C949E010C949E0114
:1000F0000C949E010C949E010C949E010C949E0104
:100100000C949E010C949E010C949E010C949E01F3
:100110000C949E010C949E010C949E010C949E01E3
:100120000C949E010C949E010C949E010C949E01D3
:100130000C949E010C949E010C949E010C949E01C3
:100140000C949E010C949E010C949E010C949E01B3
:100150000C949E010C949E010C949E010C949E01A3
:100160000C949E010C949E010C949E010C949E0193
:100170000C949E010C949E010C949E010C949E0183
:100180000C949E010C949E010C949E010C949E0173
:100190000C949E010C949E010C949E010C949E0163
:1001A0000C949E010C949E010C949E010C949E0153
:1001B0000C949E010C949E010C949E010C949E0143
:1001C0000C949E010C949E010C949E010C949E0133
:1001D0000C949E010C949E010C949E010C949E0123
:1001E0000C949E010C949E010C949E010C949E0113
:1001F0000C949E010C949E010C949E0111241FBE30
:10020000CFEFCDBFDFE3DEBF00E00CBF18BE19BEED
:100210001ABE1BBE0E9412010C940E01F894FFCF6F
:04022000506F6F00AC
:100224000E948D01E0EAF6E088E0818385830E94E4
:1002340073010E9481010E945101C0EAD6E010E1DD
:100244001E8380E190E00E94630181E090E00E94BF
:1002540063018AE090E00E94630183E090E00E94E1
:10026400630160E272E080E00E943A011D83E5CF01
:10027400CF92DF92EF926B01E82E07C08FEFC81A7E
:10028400D80AE80A862F0E946301F6015E2D0E94B7
:0E02940096016111F3CFEF90DF90CF900895A7
:1002A200E0E6F6E088E08583818384E08283E0EA09
:1002B200F9E085E0868380EA878383E3858388E1AA
:0402C2008483089594
:1002C60020E030E002C02F5F3F4F283E93E0390721
:1002D600D4F38093C30B8091C20B8823E4F708956F
:1002E60088E08093A60681E080930C0880910C0834
:0C02F60080FFFCCF88E08093A5060895EF
:10030200E0EAF6E080E1858380EB818380E482830A
:0803120081E58093C00B089502
:10031A00E0E0F8E084E89EE186A397A386E0808384
:02032A00089534
:10032C0057FD04C05BBF67911BBE089560810895A3
:04033C000C9400001D
:00000001FF
