:100000000C94FE000C941A020C941A020C941A021E
:100010000C941A020C941A020C941A020C941A02F0
:100020000C941A020C941A020C941A020C941A02E0
:100030000C941A020C941A020C941A020C941A02D0
:100040000C941A020C941A020C941A020C941A02C0
:100050000C941A020C941A020C941A020C941A02B0
:100060000C941A020C941A020C941A020C941A02A0
:100070000C941A020C941A020C941A020C941A0290
:100080000C941A020C941A020C941A020C941A0280
:100090000C941A020C941A020C941A020C941A0270
:1000A0000C941A020C941A020C941A020C941A0260
:1000B0000C941A020C941A020C941A020C941A0250
:1000C0000C941A020C941A020C941A020C941A0240
:1000D0000C941A020C941A020C941A020C941A0230
:1000E0000C941A020C941A020C941A020C941A0220
:1000F0000C941A020C941A020C941A020C941A0210
:100100000C941A020C941A020C941A020C941A02FF
:100110000C941A020C941A020C941A020C941A02EF
:100120000C941A020C941A020C941A020C941A02DF
:100130000C941A020C941A020C941A020C941A02CF
:100140000C941A020C941A020C941A020C941A02BF
:100150000C941A020C941A020C941A020C941A02AF
:100160000C941A020C941A020C941A020C941A029F
:100170000C941A020C941A020C941A020C941A028F
:100180000C941A020C941A020C941A020C941A027F
:100190000C941A020C941A020C941A020C941A026F
:1001A0000C9416010C941A020C941A020C941A0264
:1001B0000C941A020C941A020C941A020C941A024F
:1001C0000C941A020C941A020C941A020C941A023F
:1001D0000C941A020C941A020C941A020C941A022F
:1001E0000C941A020C941A020C941A020C941A021F
:1001F0000C941A020C941A020C941A0211241FBEB9
:10020000CFEFCDBFDFE3DEBF00E00CBF18BE19BEED
:100210001ABE1BBE0E9488010C940E01F894FFCFF9
:0B02200052656365697665643A200052
:10022C001F920F920FB60F92112408B60F9218BEA0
:10023C0009B60F9219BE0BB60F921BBE2F933F93AC
:10024C004F935F936F937F938F939F93AF93BF93D2
:10025C00CF93EF93FF9380E18093A6060E94F10168
:10026C000E94F1010E94F1010E94F101882361F1C9
:10027C0060E272E080E00E94B0010E94F1010E94F5
:10028C00F1010E94F101C82F99270E941302C53574
:10029C0019F481E080930706C43419F482E080934A
:1002AC000706CC3419F484E080930706C23519F4A0
:1002BC0088E080930706CE3419F480E1809307061A
:1002CC008AE090E00E941302E0EAF6E080E1858388
:1002DC0081E08487FF91EF91CF91BF91AF919F9176
:1002EC008F917F916F915F914F913F912F910F90D3
:1002FC000BBE0F9009BE0F9008BE0F900FBE0F9053
:04030C001F90189591
:100310000E94D8010E94FB010E94E5010E94C701D2
:100320008FE18093010680910C0880FFFCCF81E073
:1003300080930C08C0EAD6E010E11E8380E190E0D3
:100340000E940C0282E090E00E940C028AE090E0A1
:100350000E940C0280E090E00E940C021D83E3CF1B
:10036000CF92DF92EF926B01E82E07C08FEFC81A91
:10037000D80AE80A862F0E941302F6015E2D0E9419
:0E03800004026111F3CFEF90DF90CF9008954B
:10038E00E0E6F6E088E08583818384E08283E0EA1C
:10039E00F9E08CE08683178283E0858388E184838D
:0203AE000895B0
:1003B00081E08093A2007894E0EAF6E098E09283EE
:0A03C000968381879287838B08954E
:1003CA00E0EAF6E080E1858380EB818380E4828342
:0803DA0081E58093C00B08953A
:1003E20081E08093C30B8091C20B8823E4F7809154
:0403F200C30B08959C
:1003F600E0E0F8E084E89EE186A397A381E08083AD
:02040600089557
:1004080057FD04C05BBF67911BBE089560810895C6
:0E0418008093C30B8091C20B8823E4F70895F4
:0E0426009091A10995FFFCCF8093A009089545
:040434000C94000024
:00000001FF
