:100000000C94FE000C94F6010C94F6010C94F6018D
:100010000C94F6010C94F6010C94F6010C94F60184
:100020000C94F6010C94F6010C94F6010C94F60174
:100030000C94F6010C94F6010C94F6010C94F60164
:100040000C94F6010C94F6010C94F6010C94F60154
:100050000C94F6010C94F6010C94F6010C94F60144
:100060000C94F6010C94F6010C94F6010C94F60134
:100070000C94F6010C94F6010C94F6010C94F60124
:100080000C94F6010C94F6010C94F6010C94F60114
:100090000C94F6010C94F6010C94F6010C94F60104
:1000A0000C94F6010C94F6010C94F6010C94F601F4
:1000B0000C94F6010C94F6010C94F6010C94F601E4
:1000C0000C94F6010C94F6010C94F6010C94F601D4
:1000D0000C94F6010C94F6010C94F6010C94F601C4
:1000E0000C94F6010C94F6010C94F6010C94F601B4
:1000F0000C94F6010C94F6010C94F6010C94F601A4
:100100000C94F6010C94F6010C94F6010C94F60193
:100110000C94F6010C94F6010C94F6010C94F60183
:100120000C94F6010C94F6010C94F6010C94F60173
:100130000C94F6010C94F6010C94F6010C94F60163
:100140000C94F6010C94F6010C94F6010C94F60153
:100150000C94F6010C94F6010C94F6010C94F60143
:100160000C94F6010C94F6010C94F6010C94F60133
:100170000C94F6010C94F6010C94F6010C94F60123
:100180000C94F6010C94F6010C94F6010C94F60113
:100190000C94F6010C94F6010C94F6010C94F60103
:1001A0000C9410010C94F6010C94F6010C94F601D9
:1001B0000C94F6010C94F6010C94F6010C94F601E3
:1001C0000C94F6010C94F6010C94F6010C94F601D3
:1001D0000C94F6010C94F6010C94F6010C94F601C3
:1001E0000C94F6010C94F6010C94F6010C94F601B3
:1001F0000C94F6010C94F6010C94F60111241FBE28
:10020000CFEFCDBFDFE3DEBF00E00CBF18BE19BEED
:100210001ABE1BBE0E9483010C940E01F894FFCFFE
:100220001F920F920FB60F92112408B60F9218BEAC
:1002300009B60F9219BE0AB60F921ABE0BB60F92EC
:100240001BBE1F932F933F934F935F936F937F93A7
:100250008F939F93AF93BF93CF93DF93EF93FF93CE
:10026000C0EAD6E010E11E830E94D5010E94EF0192
:100270000E94D5010E94EF010E94D5010E94EF016A
:100280000E94D5010E94EF010E94D5010E94EF015A
:100290000E94D5010E94EF010E94D5010E94EF014A
:1002A0000E94D5010E94EF010E94D5010E94EF013A
:1002B0000E94D5010E94EF010E94D5010E94EF012A
:1002C0000E94D5010E94EF011D8381E08C87FF9180
:1002D000EF91DF91CF91BF91AF919F918F917F91DE
:1002E0006F915F914F913F912F911F910F900BBE96
:1002F0000F900ABE0F9009BE0F9008BE0F900FBE60
:060300000F901F901895FC
:100306000E94BC010E94DF010E94C9010E94AB014C
:1003160081E08093A10680910C0880FFFCCF81E0EC
:1003260080930C08C0EAD6E010E11E8380E190E0DD
:100336000E94E80182E090E00E94E8018AE090E0F5
:100346000E94E80180E090E00E94E8011D83E3CF6F
:10035600E0E6F6E088E08583818384E08283E0EA54
:10036600F9E08CE08683178283E0858388E18483C5
:020376000895E8
:1003780081E08093A2007894E0EAF6E098E0928326
:0A038800968381879287838B089586
:10039200E0EAF6E080E1858380EB818380E482837A
:0803A20081E58093C00B089572
:1003AA0081E08093C30B8091C20B8823E4F780918C
:0403BA00C30B0895D4
:1003BE00E0E0F8E084E89EE186A397A386E08083E0
:0203CE00089590
:0E03D0008093C30B8091C20B8823E4F708953D
:0E03DE009091A10995FFFCCF8093A00908958E
:0403EC000C9400006D
:00000001FF
