:100000000C94FE000C94A7010C94A7010C94A7017A
:100010000C94A7010C94A7010C94A7010C94A701C0
:100020000C94A7010C94A7010C94A7010C94A701B0
:100030000C94A7010C94A7010C94A7010C94A701A0
:100040000C94A7010C94A7010C94A7010C94A70190
:100050000C94A7010C94A7010C94A7010C94A70180
:100060000C94A7010C94A7010C94A7010C94A70170
:100070000C94A7010C94A7010C94A7010C94A70160
:100080000C94A7010C94A7010C94A7010C94A70150
:100090000C94A7010C94A7010C94A7010C94A70140
:1000A0000C94A7010C94A7010C94A7010C94A70130
:1000B0000C94A7010C94A7010C94A7010C94A70120
:1000C0000C94A7010C94A7010C94A7010C94A70110
:1000D0000C94A7010C94A7010C94A7010C94A70100
:1000E0000C94A7010C94A7010C94A7010C94A701F0
:1000F0000C94A7010C94A7010C94A7010C94A701E0
:100100000C94A7010C94A7010C94A7010C94A701CF
:100110000C94A7010C94A7010C94A7010C94A701BF
:100120000C94A7010C94A7010C94A7010C94A701AF
:100130000C94A7010C94A7010C94A7010C94A7019F
:100140000C94A7010C94A7010C94A7010C94A7018F
:100150000C94A7010C94A7010C94A7010C94A7017F
:100160000C94A7010C94A7010C94A7010C94A7016F
:100170000C94A7010C94A7010C94A7010C94A7015F
:100180000C94A7010C94A7010C94A7010C94A7014F
:100190000C94A7010C94A7010C94A7010C94A7013F
:1001A0000C94A7010C94A7010C94A7010C94A7012F
:1001B0000C94A7010C94A7010C94A7010C94A7011F
:1001C0000C94A7010C94A7010C94A7010C94A7010F
:1001D0000C94A7010C94A7010C94A7010C94A701FF
:1001E0000C94A7010C94A7010C94A7010C94A701EF
:1001F0000C94A7010C94A7010C94A70111241FBE15
:10020000CFEFCDBFDFE3DEBF00E00CBF18BE19BEED
:100210001ABE1BBE0E9419010C940E01F894FFCF68
:1002200054686973206973206120746573742E0AA1
:0102300000CD
:100232000E947F01E0EAF6E088E0818385830E94E4
:1002420073010E94610180910C0880FFFCCF81E064
:1002520080930C080E9488010E94A001C0EAD6E0A7
:1002620010E11E8380E190E00E94990181E090E01C
:100272000E9499018AE090E00E94990180E190E059
:100282000E94990160E272E080E00E944A011D83AF
:02029200DACFC1
:10029400CF92DF92EF926B01E82E07C08FEFC81A5E
:1002A400D80AE80A862F0E949901F6015E2D0E9461
:0E02B40091016111F3CFEF90DF90CF9008958C
:1002C200E0E6F6E088E08583818384E08283E0EAE9
:1002D200F9E085E0868380EA878383E3858388E18A
:0402E2008483089574
:1002E600E0EAF6E080E1858380EB818380E4828327
:0802F60081E58093C00B08951F
:1002FE00E0E0F8E084E89EE186A397A386E08083A1
:02030E00089550
:100310001092C30B8091C20B8823E4F78091C30B2A
:0203200008953E
:1003220057FD04C05BBF67911BBE089560810895AD
:0E0332008093C30B8091C20B8823E4F70895DB
:0E0340009091A10995FFFCCF8093A00908952C
:04034E000C9400000B
:00000001FF
