:100000000C94FE000C94AB010C94AB010C94AB016E
:100010000C94AB010C94AB010C94AB010C94AB01B0
:100020000C94AB010C94AB010C94AB010C94AB01A0
:100030000C94AB010C94AB010C94AB010C94AB0190
:100040000C94AB010C94AB010C94AB010C94AB0180
:100050000C94AB010C94AB010C94AB010C94AB0170
:100060000C94AB010C94AB010C94AB010C94AB0160
:100070000C94AB010C94AB010C94AB010C94AB0150
:100080000C94AB010C94AB010C94AB010C94AB0140
:100090000C94AB010C94AB010C94AB010C94AB0130
:1000A0000C94AB010C94AB010C94AB010C94AB0120
:1000B0000C94AB010C94AB010C94AB010C94AB0110
:1000C0000C94AB010C94AB010C94AB010C94AB0100
:1000D0000C94AB010C94AB010C94AB010C94AB01F0
:1000E0000C94AB010C94AB010C94AB010C94AB01E0
:1000F0000C94AB010C94AB010C94AB010C94AB01D0
:100100000C94AB010C94AB010C94AB010C94AB01BF
:100110000C94AB010C94AB010C94AB010C94AB01AF
:100120000C94AB010C94AB010C94AB010C94AB019F
:100130000C94AB010C94AB010C94AB010C94AB018F
:100140000C94AB010C94AB010C94AB010C94AB017F
:100150000C94AB010C94AB010C94AB010C94AB016F
:100160000C94AB010C94AB010C94AB010C94AB015F
:100170000C94AB010C94AB010C94AB010C94AB014F
:100180000C94AB010C94AB010C94AB010C94AB013F
:100190000C94AB010C94AB010C94AB010C94AB012F
:1001A0000C94AB010C94AB010C94AB010C94AB011F
:1001B0000C94AB010C94AB010C94AB010C94AB010F
:1001C0000C94AB010C94AB010C94AB010C94AB01FF
:1001D0000C94AB010C94AB010C94AB010C94AB01EF
:1001E0000C94AB010C94AB010C94AB010C94AB01DF
:1001F0000C94AB010C94AB010C94AB0111241FBE09
:10020000CFEFCDBFDFE3DEBF00E00CBF18BE19BEED
:100210001ABE1BBE0E9412010C940E01F894FFCF6F
:0402200041544900FC
:100224000E949301E0EAF6E088E0818385830E94DE
:1002340079010E9487010E94670180E190E00E9499
:10024400510180E090E00E9451018AE090E00E9418
:10025400510183E090E00E94510160E272E080E08D
:100264000E943A018091C30B90E00E94A401E5CF63
:10027400CF92DF92EF926B01E82E07C08FEFC81A7E
:10028400D80AE80A862F0E945101F6015E2D0E94C9
:0E0294009C016111F3CFEF90DF90CF900895A1
:1002A20090E19093A60620E030E002C02F5F3F4F1E
:1002B200283E93E03907D4F38093C30B8091C20B9D
:0C02C2008823E4F780E18093A5060895EE
:1002CE00E0E6F6E088E08583818384E08283E0EADD
:1002DE00F9E085E0868380EA878383E3858388E17E
:0402EE008483089568
:1002F20088E08093A60681E080930C0880910C0828
:0C03020080FFFCCF88E08093A5060895E2
:10030E00E0EAF6E080E1858380EB818380E48283FE
:08031E0081E58093C00B0895F6
:10032600E0E0F8E084E89EE186A397A386E0808378
:02033600089528
:1003380057FD04C05BBF67911BBE08956081089597
:0E0348009091A10995FFFCCF8093A009089524
:040356000C94000003
:00000001FF
