:100000000C94FE000C9422020C9422020C94220206
:100010000C9422020C9422020C9422020C942202D0
:100020000C9422020C9422020C9422020C942202C0
:100030000C9422020C9422020C9422020C942202B0
:100040000C9422020C9422020C9422020C942202A0
:100050000C9422020C9422020C9422020C94220290
:100060000C9422020C9422020C9422020C94220280
:100070000C9422020C9422020C9422020C94220270
:100080000C9422020C9422020C9422020C94220260
:100090000C9422020C9422020C9422020C94220250
:1000A0000C9422020C9422020C9422020C94220240
:1000B0000C9422020C9422020C9422020C94220230
:1000C0000C9422020C9422020C9422020C94220220
:1000D0000C9422020C9422020C9422020C94220210
:1000E0000C9422020C9422020C9422020C94220200
:1000F0000C9422020C9422020C9422020C942202F0
:100100000C9422020C9422020C9422020C942202DF
:100110000C9422020C9422020C9422020C942202CF
:100120000C9422020C9422020C9422020C942202BF
:100130000C9422020C9422020C9422020C942202AF
:100140000C9422020C9422020C9422020C9422029F
:100150000C9422020C9422020C9422020C9422028F
:100160000C9422020C9422020C9422020C9422027F
:100170000C9422020C9422020C9422020C9422026F
:100180000C9422020C9422020C9422020C9422025F
:100190000C9422020C9422020C9422020C9422024F
:1001A0000C9419010C9422020C9422020C94220249
:1001B0000C9422020C9422020C9422020C9422022F
:1001C0000C9422020C9422020C9422020C9422021F
:1001D0000C9422020C9422020C9422020C9422020F
:1001E0000C9422020C9422020C9422020C942202FF
:1001F0000C9422020C9422020C94220211241FBEA1
:10020000CFEFCDBFDFE3DEBF00E00CBF18BE19BEED
:100210001ABE1BBE0E9488010C940E01F894FFCFF9
:1002200042797465732072656365697665643A2006
:0102300000CD
:100232001F920F920FB60F92112408B60F9218BE9A
:1002420009B60F9219BE0AB60F921ABE0BB60F92DA
:100252001BBE0F931F932F933F934F935F936F9305
:100262007F938F939F93AF93BF93CF93DF93EF933C
:10027200FF9380E18093A6060E94F1010E94F101A2
:100282000E94F10160E272E080E00E94B0010E94EF
:10029200F1018C011127C8010E94040280E290E062
:1002A2000E941B02C0E0D0E005C00E94F1010E9442
:1002B2001B022196980121503109C217D307ACF3D2
:1002C200C0EAD6E080E18D838AE090E00E941B02C2
:1002D20081E08C87FF91EF91DF91CF91BF91AF9138
:1002E2009F918F917F916F915F914F913F912F914C
:1002F2001F910F910F900BBE0F900ABE0F9009BE77
:0E0302000F9008BE0F900FBE0F901F90189521
:100310000E94D8010E94FB010E94E5010E94C701D2
:1003200081E08093A10680910C0880FFFCCF81E0E2
:1003300080930C08C0EAD6E010E11E8380E190E0D3
:100340000E94140282E090E00E9414028AE090E091
:100350000E94140280E090E00E9414021D83E3CF0B
:10036000CF92DF92EF926B01E82E07C08FEFC81A91
:10037000D80AE80A862F0E941B02F6015E2D0E9411
:0E0380000C026111F3CFEF90DF90CF90089543
:10038E00E0E6F6E088E08583818384E08283E0EA1C
:10039E00F9E08CE08683178283E0858388E184838D
:0203AE000895B0
:1003B00081E08093A2007894E0EAF6E098E09283EE
:0A03C000968381879287838B08954E
:1003CA00E0EAF6E080E1858380EB818380E4828342
:0803DA0081E58093C00B08953A
:1003E20081E08093C30B8091C20B8823E4F7809154
:0403F200C30B08959C
:1003F600E0E0F8E084E89EE186A397A386E08083A8
:02040600089557
:10040800805D9091A10995FFFCCF8093A009089584
:1004180057FD04C05BBF67911BBE089560810895B6
:0E0428008093C30B8091C20B8823E4F70895E4
:0E0436009091A10995FFFCCF8093A009089535
:040444000C94000014
:00000001FF
