:100000000C94FE000C9439020C9439020C943902C1
:100010000C9439020C9439020C9439020C94390274
:100020000C9439020C9439020C9439020C94390264
:100030000C9439020C9439020C9439020C94390254
:100040000C9439020C9439020C9439020C94390244
:100050000C9439020C9439020C9439020C94390234
:100060000C9439020C9439020C9439020C94390224
:100070000C9439020C9439020C9439020C94390214
:100080000C9439020C9439020C9439020C94390204
:100090000C9439020C9439020C9439020C943902F4
:1000A0000C9439020C9439020C9439020C943902E4
:1000B0000C9439020C9439020C9439020C943902D4
:1000C0000C9439020C9439020C9439020C943902C4
:1000D0000C9439020C9439020C9439020C943902B4
:1000E0000C9439020C9439020C9439020C943902A4
:1000F0000C9439020C9439020C9439020C94390294
:100100000C9439020C9439020C9439020C94390283
:100110000C9439020C9439020C9439020C94390273
:100120000C9439020C9439020C9439020C94390263
:100130000C9439020C9439020C9439020C94390253
:100140000C9439020C9439020C9439020C94390243
:100150000C9439020C9439020C9439020C94390233
:100160000C9439020C9439020C9439020C94390223
:100170000C9439020C9439020C9439020C94390213
:100180000C9439020C9439020C9439020C94390203
:100190000C9439020C9439020C9439020C943902F3
:1001A0000C9428010C9439020C9439020C943902F5
:1001B0000C9439020C9439020C9439020C943902D3
:1001C0000C9439020C9439020C9439020C943902C3
:1001D0000C9439020C9439020C9439020C943902B3
:1001E0000C9439020C9439020C9439020C943902A3
:1001F0000C9439020C9439020C94390211241FBE5C
:10020000CFEFCDBFDFE3DEBF00E00CBF18BE19BEED
:100210001ABE1BBE0E94A2010C940E01F894FFCFDF
:100220004572726F723A205061636B657420736916
:100230007A6520746F6F206C617267652E00427959
:0F0240007465732072656365697665643A2000A2
:100250001F920F920FB60F92112408B60F9218BE7C
:1002600009B60F9219BE0AB60F921ABE0BB60F92BC
:100270001BBE0F931F932F933F934F935F936F93E7
:100280007F938F939F93AF93BF93CF93DF93EF931E
:10029000FF9380E18093A6060E9408020E94080254
:1002A0000E9408020E9408028C01893028F060E256
:1002B00072E080E00E94C7018FEF800F8830F8F471
:1002C0006EE372E080E00E94C7011127C8010E941E
:1002D0001B0280E290E00E943202C0E0D0E005C044
:1002E0000E9408020E943202219698012150310991
:1002F000C217D307ACF38AE090E00E943202E0EA32
:10030000F6E080E1858381E08487FF91EF91DF91C2
:10031000CF91BF91AF919F918F917F916F915F919D
:100320004F913F912F911F910F910F900BBE0F9006
:100330000ABE0F9009BE0F9008BE0F900FBE0F901F
:040340001F9018955D
:100344000E94EF010E9412020E94FC010E94DE0141
:1003540080910C0880FFFCCF81E080930C08C0EAF8
:10036400D6E010E11E8380E190E00E942B0282E03F
:1003740090E00E942B028AE090E00E942B0280E031
:0A03840090E00E942B021D83E3CFDE
:10038E00CF92DF92EF926B01E82E07C08FEFC81A63
:10039E00D80AE80A862F0E943202F6015E2D0E94CC
:0E03AE0023026111F3CFEF90DF90CF900895FE
:1003BC00E0E6F6E088E08583818384E08283E0EAEE
:1003CC00F9E08CE08683178283E0858388E184835F
:0203DC00089582
:1003DE0081E08093A2007894E0EAF6E098E09283C0
:0A03EE00968381879287838B089520
:1003F800E0EAF6E080E1858380EB818380E4828314
:0804080081E58093C00B08950B
:1004100081E08093C30B8091C20B8823E4F7809125
:04042000C30B08956D
:10042400E0E0F8E084E89EE186A397A386E0808379
:02043400089529
:10043600805D9091A10995FFFCCF8093A009089556
:1004460057FD04C05BBF67911BBE08956081089588
:0E0456008093C30B8091C20B8823E4F70895B6
:0E0464009091A10995FFFCCF8093A009089507
:040472000C940000E6
:00000001FF
