:100000008DC00000A6C00000A4C00000A2C0000077
:10001000A0C000009EC000009CC000009AC000006C
:1000200098C0000096C0000094C00000AFC300005C
:1000300090C000008EC000008CC000008AC000008C
:1000400088C0000086C0000084C0000082C000009C
:1000500080C000007EC000007CC000003CC10000E9
:1000600078C0000076C0000074C0000072C00000BC
:1000700070C000008604A4045605A4045605DC04E0
:10008000F904560519052B051203750043006F008E
:100090006E00740072006F006C00000010034100DD
:1000A00072006400750069006E006F0000000403B8
:1000B000090409022200010100C032090400000104
:1000C000030000000921110100012236000705810B
:1000D0000308000A1201100100000008EB0343208E
:1000E00000000102000105010904A1010901A100AC
:1000F000050109300931093209331580257F75085A
:1001000095048182C00509090209011500250175C0
:100110000195028102750695018101C011241FBE5F
:10012000CFEFD2E0DEBFCDBF11E0A0E0B1E0EEEE58
:10013000FEE002C005900D92AE30B107D9F721E084
:10014000AEE0B1E001C01D92AA3AB207E1F74BD090
:10015000CCC656CFE0919C01F0919D018191F09326
:100160009D01E0939C01EA59F14031F42AE131E02C
:1001700030939D0120939C012FB7F89490919E019C
:10018000915090939E012FBF0895CF93DF9384B732
:10019000877F84BF0FB6F894A8958091600088612E
:1001A00080936000109260000FBE80E190E0909319
:1001B000CD008093CC0086E08093CA0082E08093DB
:1001C000C800C9ECD0E088E18883539A5A9A8AB172
:1001D00080638AB98BB180638BB9CDD288E988837B
:1001E000DF91CF910895D1DF2FB7F8948AE191E0A4
:1001F00090939B0180939A0190939D0180939C0121
:100200002FBF789480E091E0A8D559D480910E0159
:1002100090910F01892BB1F380910E0190910F0104
:10022000019790930F0180930E0180910E019091A0
:100230000F01892B39F75D9AE5CF0895089580E085
:1002400091E069D5E2EEF0E08081846080830895DA
:1002500080E091E045C480910B0190910C010097E2
:1002600029F0019790930C0180930B010895EF9270
:10027000FF920F931F93CF93DF9379019FB7F89469
:1002800080919E019FBF863080F0C0E1D1E062DFA7
:10029000899381E0C531D807D1F75CDF5D9880EDA7
:1002A00097E090930F0180930E0185E0E0E1F1E08B
:1002B000D70101900D928A95E1F785E090E0F80171
:1002C0009183808380E0DF91CF911F910F91FF9008
:1002D000EF90089508951F920F920FB60F92112478
:1002E0002F938F939F93EF93FF938091CE009EB3B4
:1002F000943029F52FB7F89490919E012FBF903834
:10030000F1F0E0919A01F0919B018083E0919A01D4
:10031000F0919B01CF01019690939B0180939A01EC
:100320008A59914021F48AE191E0928381839FB7B9
:10033000F89480919E018F5F80939E019FBFFF91F3
:10034000EF919F918F912F910F900FBE0F901F9063
:100350001895292F332723303105E1F058F4213047
:10036000310599F02230310569F582E290E022EB07
:1003700030E02CC02132310501F12232310511F576
:1003800086E390E026EE30E021C082E190E024EDAB
:1003900030E01CC099278130910549F028F0029780
:1003A00089F4E8E8F0E005C0EEEAF0E002C0ECE92C
:1003B000F0E0849190E09F0109C089E090E024EC96
:1003C00030E004C080E090E020E030E0FA013183CA
:1003D00020830895AC0128E030E080E02417350741
:1003E00020F48F5F220F331FF9CF8295807F08950D
:1003F0008093E900EBEEF0E0808181608083EDEE98
:10040000F0E010826093EC0040838091EE00881F42
:100410008827881F08951092F40080E08093E900F7
:100420001092F0001092E8001092ED009091EB0015
:100430009E7F9093EB008F5F853081F708958091C8
:10044000A20187FF0FC08091E80082FD04C08EB337
:100450008111F9CF10C08091E8008B770AC08EB36C
:10046000882349F08091E80080FFF9CF8091E8006F
:100470008E778093E800089585E69091EC0090FFD8
:1004800005C09091E80090FF05C01BC09091E80066
:1004900092FD17C09EB39923B1F09EB39530A9F099
:1004A0009091EB0095FD13C09091E10092FFE5CF94
:1004B0009091E1009B7F9093E1008150F1F684E000
:1004C000089580E0089582E0089583E0089581E032
:1004D0000895EF92FF920F931F93CF93DF938C01B8
:1004E000EB017A01C9DF81111DC02097D1F0809105
:1004F000E80085FD0EC08091E8008E778093E800CB
:10050000E114F10479F3F7010995813059F785E099
:1005100009C0F80180818093F10021970F5F1F4F80
:10052000E4CF80E0DF91CF911F910F91FF90EF908A
:1005300008952091A8013091A9012617370748F0A6
:100540006115710539F42091E8002E772093E800B9
:1005500001C0B90130E06115710561F12091E80039
:1005600023FD37C02091E80022FD2DC02EB32223A9
:1005700091F12EB3253089F12091E80020FFEBCFD7
:100580002091F200FC01CF016115710549F028307E
:1005900038F481918093F100615071092F5FF3CF9E
:1005A00031E0283009F030E02091E8002E772093E8
:1005B000E800D1CF3111D2CF06C08EB3882359F0D5
:1005C0008EB3853051F08091E80082FFF6CF80E055
:1005D000089581E0089582E0089583E008952091D0
:1005E000A8013091A9012617370748F06115710558
:1005F00039F42091E8002E772093E80001C0B9017A
:1006000030E06115710569F12091E80023FD38C0E3
:100610002091E80022FD2EC02EB3222399F12EB3A3
:10062000253091F12091E80020FFEBCF2091F200DE
:10063000FC01CF016115710551F0283040F484911F
:100640008093F100615071092F5F3196F2CF31E054
:10065000283009F030E02091E8002E772093E80060
:10066000D0CF3111D1CF06C08EB3882359F08EB3CD
:10067000853051F08091E80082FFF6CF80E0089548
:1006800081E0089582E0089583E008956115710581
:1006900029F42091E8002B772093E800611571057B
:1006A00011F12091E80023FD24C02EB3222319F17B
:1006B0002EB3253011F12091E80022FFEFCF2091D9
:1006C000F200222331F301962091F100FC013197D1
:1006D00020836150710999F7DCCF8EB3882359F0DC
:1006E0008EB3853051F08091E80080FFF6CF80E036
:1006F000089581E0089582E0089583E0089540D050
:1007000042D01EBA1092A00110929F0184E089BDD0
:1007100089B5826089BD09B400FEFDCF8091D80003
:10072000982F9F779093D80080688093D80080910D
:1007300063008E7F809363008091D8008F7D8093CB
:10074000D8008091E0008E7F8093E0008091E100EE
:100750008E7F8093E1008091E20081608093E200CF
:100760008091E100877F8093E1008091E2008860C2
:100770008093E2000895C3DF81E08093A101089592
:100780001092E20008951092E10008951F920F92D6
:100790000FB60F9211242F933F934F935F936F9354
:1007A0007F938F939F93AF93BF93EF93FF9380912A
:1007B000E10080FF1BC08091E20080FF17C08091A4
:1007C000E1008E7F8093E1008091E2008E7F809334
:1007D000E2008091E20080618093E2008091D80085
:1007E00080628093D80019BC1EBA28DD8091E10098
:1007F00084FF29C08091E20084FF25C084E089BD88
:1008000089B5826089BD09B400FEFDCF8091D80012
:100810008F7D8093D8008091E1008F7E8093E100EE
:100820008091E2008F7E8093E2008091E2008160FF
:100830008093E2008091A001811102C081E001C09B
:1008400084E08EBBFADC8091E10083FF22C08091BE
:10085000E20083FF1EC08091E100877F8093E1006A
:1008600082E08EBB1092A0018091E1008E7F809388
:10087000E1008091E2008E7F8093E2008091E200AF
:1008800080618093E200C7DD42E060E080E0B0DD9F
:1008900015D18091E10082FF0AC08091E20082FFC1
:1008A00006C08091E1008B7F8093E100D4DCFF9152
:1008B000EF91BF91AF919F918F917F916F915F91D8
:1008C0004F913F912F910F900FBE0F901F90189551
:1008D0001F93CF93DF9300D0CDB7DEB7E2EAF1E00C
:1008E0008AEA91E02091F10021938E179F07D1F7BA
:1008F0008091A2019091A301492F50E04A30510507
:1009000008F0D4C0FA01E65CFF4FCCC2803881F019
:10091000823809F0CBC08091A60187708093E900EE
:100920008091EB0085FB882780F91092E90002C0D6
:1009300080919F019091E800977F9093E8008093C9
:10094000F1001092F10080C0282F2D7F09F0AEC079
:10095000823009F09CC08091A401811127C0809150
:10096000A601877009F493C08093E9002091EB0001
:1009700020FF8DC0933021F48091EB00806214C081
:100980009091EB0090619093EB0021E030E0A901A1
:1009900002C0440F551F8A95E2F74093EA00109277
:1009A000EA008091EB0088608093EB001092E900F0
:1009B0008091E800877F4BC0811178C01091A4011D
:1009C0008091E800877F8093E80039DD8091E8001E
:1009D00080FD04C08EB38111F9CF59C0812F8F776C
:1009E00011F492E001C093E09EBB80688093E30025
:1009F0004EC08058823008F059C0AE014F5F5F4F43
:100A00006091A6018091A4019091A501A2DCBC0196
:100A1000892B09F43CC09091E800977F9093E800FF
:100A200089819A81DCDD8091E8008B778093E800F2
:100A30002EC08038D9F58091E800877F8093E80048
:100A40008091A0018093F1008091E8008E778093DF
:100A5000E800F5DC1CC0811129C08091A4019091AF
:100A6000A501992702979CF48091E800877F8093E5
:100A7000E8008091A4018093A001E1DC8091A001B5
:100A8000811102C083E001C084E08EBBD8DB80917D
:100A9000E80083FF0DC08091EB0080628093EB0043
:100AA0008091E800877F8093E80002C0D1DBEFCF20
:100AB0000F900F90DF91CF911F9108950895CF93DC
:100AC0008EB3882359F0C091E900C7701092E900F5
:100AD0008091E80083FDFCDEC093E900CF9108958A
:100AE0008F929F92AF92BF92CF92DF92EF92FF923E
:100AF0000F931F93CF93DF9300D01F92CDB7DEB734
:100B00007C01CDB6DEB68091E80083FFEFC0F7012F
:100B1000808190E02091A6013091A7012817390724
:100B200009F0E4C08091A301833009F491C030F44E
:100B3000813071F0823009F4C1C0D8C08A3009F424
:100B4000A6C08B3009F491C0893009F0CFC04DC0E8
:100B50008091A201813A09F0C9C08DB69EB68091FC
:100B6000E800877F8093E8001A8219828091A401AF
:100B70001091A5018B83F7018781482F50E08DB735
:100B80009EB7841B950B0FB6F8949EBF0FBE8DBF0A
:100B9000EDB7FEB731965F0160E070E0CF019ED106
:100BA0004FEF410F8E010F5F1F4F9501BE016D5F2B
:100BB0007F4FC7015CDBF70185819681009721F0AB
:100BC000478150E0B50181D11092E90069817A81B5
:100BD000C501AFDC8091E8008B778093E8000FB609
:100BE000F8949EBE0FBE8DBE81C08091A20181325D
:100BF00009F07CC08091E800877F8093E800009135
:100C0000A8011091A901A090A401B090A5018DB7F1
:100C10009EB7801B910B0FB6F8949EBF0FBE8DBF81
:100C2000EDB7FEB731964F01B801CF012FDD4FEF81
:100C30004B0D94016A2DC7014DDB8091E8008E7742
:100C40008093E8000FB6F894DEBE0FBECDBE4EC056
:100C50008091A201813A09F049C08091E800877F24
:100C60008093E800F701808539C08091A20181322C
:100C7000E9F58091E800877F8093E8009091A401D6
:100C800081E0911101C080E0F70180872EC0809142
:100C9000A201813259F58091E800877F8093E800B6
:100CA0008091A4019091A501882736E096958795BB
:100CB0003A95E1F7F7019287818717C08091A201E9
:100CC000813AA1F48091E800877F8093E800F701E2
:100CD0008185928596958795969587958093F10065
:100CE0008091E8008E778093E800A9DB0FB6F89436
:100CF000DEBE0FBECDBE0F900F900F90DF91CF9153
:100D00001F910F91FF90EF90DF90CF90BF90AF9029
:100D10009F908F900895CF93DF93FC01DC0118968C
:100D200085E0ED0119928A95E9F781E0808784EFEB
:100D300091E092878187828193812481211102C071
:100D4000C0E001C0C4E0D18145DB8C2B482F42605C
:100D500061EC8D2FDF91CF914BCB5F926F927F92A1
:100D60008F929F92AF92BF92CF92DF92EF92FF92BB
:100D70000F931F93CF93DF9300D01F92CDB7DEB7B1
:100D80007C01ADB6BEB68EB3843009F073C0F701F6
:100D900081818093E9008091E80085FF6BC08DB66A
:100DA0009EB6478150E08DB79EB7841B950B0FB65A
:100DB000F8949EBF0FBE8DBFEDB7FEB731966F01A1
:100DC0001B821A82198260E070E0CF0187D08E0109
:100DD0000F5F1F4F960140E0BE016D5F7F4FC7015F
:100DE00046DA582EF70181859285892B29F011E08A
:100DF00083859485892B09F010E0F7016580768062
:100E00006114710481F049815A81B301C60150D047
:100E100001E0892B09F400E0F701478150E0B601B9
:100E2000C30153D001C000E089819A81892BE9F088
:100E3000511004C0011102C010FF17C0F7018185D5
:100E400092859487838781818093E9008B818111CA
:100E50008093F10069817A8140E050E0C60139DB7E
:100E60008091E8008E778093E8000FB6F8949EBEDC
:100E70000FBE8DBE0FB6F894BEBE0FBEADBE0F90B6
:100E80000F900F90DF91CF911F910F91FF90EF90F6
:100E9000DF90CF90BF90AF909F908F907F906F909A
:100EA0005F900895EE0FFF1F0590F491E02D0994D7
:100EB000FB01DC0104C08D910190801921F44150A7
:100EC0005040C8F7881B990B0895FB01DC0102C054
:100ED00001900D9241505040D8F70895DC0101C0B7
:0E0EE0006D9341505040E0F70895F894FFCF15
:0E0EEE000001080000150105000000000000D2
:00000001FF
